:020000040800F2
:10000000005000209D710008D14D0008D34D00081C
:10001000D54D0008D74D0008D94D0008000000005C
:10002000000000000000000000000000DB4D0008A0
:10003000DD4D000800000000DF4D0008E14D000824
:10004000E5710008E5710008E5710008E571000838
:10005000E5710008E5710008E5710008E571000828
:10006000E5710008E5710008E5710008E571000818
:10007000E94D0008E5710008E5710008E571000828
:10008000E5710008E5710008E5710008E5710008F8
:10009000E5710008E5710008E5710008E5710008E8
:1000A000E5710008F94D0008E5710008E5710008E8
:1000B000E5710008E5710008E5710008E5710008C8
:1000C000E5710008E5710008E5710008E5710008B8
:1000D000E5710008E5710008E5710008E5710008A8
:1000E000E5710008E5710008E571000800000000F6
:1000F0000000000000000000000000000000000000
:0C01000000000000000000005FF808F1A3
:1001100003460A4602490868194600F003B800BFC2
:100120000C00002070B5A1FB025454B9294600F020
:1001300043F8064638B12A46214601F013F8304606
:1001400070BD0C2202600026304670BD024B014695
:10015000186800F031B800BF0C000020024B0146C7
:10016000186802F073B900BF0C00002070B5114E82
:10017000054633680C46BBB12146284601F08AF893
:10018000431C01460CD0C41C24F00304A04205D03B
:100190002846611A01F07EF8013001D0204670BD7A
:1001A0004FF0FF34204670BD194601F073F83060FF
:1001B000E2E700BFD40100202DE9F041CD1C25F07D
:1001C000030508350C2D38BF0C25002D064682B0DE
:1001D00016DBA94214D8354F00F06AF87A68AAB144
:1001E000144603E06368224683B11C4623685B1B08
:1001F000F8D40B2B21D8A242636855D053600DE090
:100200000C233360002002B0BDE8F081294630465F
:10021000FFF7ACFF431C044619D00560304600F0E0
:100220004DF804F10B00231D20F00700C21A1CBF7B
:100230001B1AA35002B0BDE8F0816119A2422560EB
:1002400014BF51607960635163684B60E6E77B6877
:1002500023B31C465B68002BFBD12268194630464D
:1002600004EB0208019301F015F8804516D12268CD
:100270003046AD1A2946FFF779FF01300ED02268CB
:1002800078682A4422604268019B12B90CE010464B
:100290005268A242FBD100234360BFE70C233046E3
:1002A000336000F00BF8ADE77B60B7E7D4010020C6
:1002B000014801F04FB800BF2C030020014801F0B5
:1002C00051B800BF2C0300202DE9F043002B89B06A
:1002D0001646DDE912191F46109CDDF850805BDBE5
:1002E000002528F02003462B0D70CDF8089040D053
:1002F000452B19D00223009307AB049306AB03935D
:1003000032463B46019401F049F9B8F1670F0546C2
:1003100017D1119BDB0717D4079B2846159A5B1B47
:10032000136009B0BDE8F0830223009307AB049388
:10033000013406AB039332463B46019401F02EF99B
:100340000546B8F1470FE4D0304639460022002375
:100350002C4404F093FA08B12346DEE7079B9C4245
:10036000DBD930215A1C07921970079BA342F9D39D
:10037000D3E70323009307AB049306AB0393324602
:100380003B46019401F00AF903780546302B08D06A
:10039000D9F800301C44D7E703F100432D251F4650
:1003A0009FE7002200233046394604F067FA002810
:1003B000EED1C4F10103C9F800301C44C4E700BF0A
:1003C0000029B4BF2D232B2330B5B8BF49420929DA
:1003D00083B0027043702CDD0DF107042346194DE4
:1003E0008C461A46A5FB01E3DB0803EB830EA1EB69
:1003F0004E0101F1300EBCF1630F194602F801EC19
:1004000002F1FF33ECDC303103F8011C931EA342F0
:1004100000F102050AD2411C13F801CBA34201F8F6
:1004200001CFF9D10DF109039B1A1D44281A03B01D
:1004300030BD3023051D1944C1708370281A03B0E4
:1004400030BD00BFCDCCCCCC2DE9F04F91B00C46E7
:10045000DDF8688016461F46054600F0D5FE0368A5
:1004600018460A9300F0CCFF00230E93D8F8003012
:100470000B90073323F0070303F10802D4F800A020
:1004800094F818B0C8F80020D3E90023CDE9082378
:10049000DDE90823904623F00049C4E912234046D1
:1004A0004FF0FF324946994B04F01AFA48B94046DA
:1004B00049464FF0FF32954B04F0F4F9002800F064
:1004C0009F80DDE9080102460B4604F009FA002886
:1004D00040F056826368D9465A1C4AF4806137D08E
:1004E000BBF1670F5BD0BBF1470F00F09581009324
:1004F000216001910021DDE9082306910EA90591F3
:100500000DA903910DF133012846CDF810B00291E9
:10051000FFF7DAFE8046BBF1650F0D995FD9BBF19D
:10052000660F00F090810E9B8B4200F3968123684A
:100530002161DB0701D54B1C23614FF00009A16548
:100540009DF83330002B73D02D2384F843306FE0B7
:10055000216001910021DDE90823062006910EA902
:10056000CDF810B0606005910DA903910DF1330134
:10057000009002912846FFF7A7FEBBF1670F804667
:1005800026D0BBF1470FC6D10D99C81C03DB6368A9
:10059000994240F32A814FF04509CB461FE0002BDA
:1005A00040F06C81DDE908230120CDF810B0216016
:1005B000019100210691606000900EA905910DA99E
:1005C00003910DF1330128460291FFF77DFE80462D
:1005D0000D99CB1C80F205814FF06509CB464A4648
:1005E000013904F150000D91FFF7EAFE0E9A8146A1
:1005F0001318012A236140F33C81013323619FE7F3
:100600000022DDE90801002304F042F910B12D2396
:1006100084F843302AF00403236003233C4A236117
:100620003C4B4FF00009BBF1470F94BF90469846F2
:1006300033462146284600970FAA00F0E7F901301B
:1006400023D0236858052BD44246314628462369D7
:10065000B847013019D022689207E0680F9B19D57E
:10066000984217DD4FF0000804F1190904E0E06832
:100670000F9BC21A42450DDD01234A4631462846EA
:10068000B847013008F10108F1D14FF0FF3011B047
:10069000BDE8F08F9842B8BF184611B0BDE8F08FA2
:1006A000BBF1650F3AD9D4E912010022002304F00E
:1006B000E5F8002863D0012331462846164AB8479A
:1006C0000130E2D0DDE90D38434502DB2268D10775
:1006D000C2D5DDE90A2331462846B8470130D4D0D7
:1006E000B8F1010F08F1FF3AB5DD4FF0000804F151
:1006F0001A0901E0D045AED001234A4631462846CA
:100700009844B8470130F5D1BFE700BFFFFFEF7F46
:10071000B07F0008B47F0008C07F0008DDF838A073
:10072000BAF1010F64DD0123424631462846B8473D
:100730000130AAD0DDE90A2331462846B847013006
:10074000A3D0D4E91201002200230AF1FF3B04F0F8
:1007500095F8002800F08980BAF1010F52DD4FF0C2
:10076000000804F11A0A01E0D8454BD00123524693
:10077000314628469844B8470130F5D185E70D9BAE
:10078000002B40F38C800E9BD4F858A09B46534519
:10079000A8BFD346BBF1000F089309DD5B46424674
:1007A00031462846B84701303FF46FAFD4F858A01F
:1007B0002BEAEB7BDA4540F3B7804FF0000904F1F8
:1007C0001A0A05E0A36DA3EB0B024A4540F3AB8088
:1007D00001235246314628469944B8470130F1D1A9
:1007E00053E7636899423FF7F7AE4FF0670B9AE61D
:1007F000D90798D44246012331462846B8470130EC
:100800003FF443AF4B463146284604F15002B84707
:1008100001307FF420AF38E7002B6CD00093CDF887
:1008200010B0216001910021DDE9082306910EA995
:1008300005910DA903910DF1330128460291FFF7AF
:1008400043FD8046A0E60029636821DD2161002B7D
:100850005DD001330B4423616FE60029CCBF012238
:10086000C1F102021344236167E65B4608F101020D
:10087000C2E72268D2077FF563AEBEE60093CDF8EB
:1008800010B0216001910021DDE90823069194E672
:10089000002B41D12268D2073ED40123E3E7012394
:1008A00031462846564AB84701303FF4EEAEDDE9FE
:1008B0000D3959EA030331D0DDE90A2331462846D0
:1008C000B84701303FF4E1AE0D9B002B80F28E80E3
:1008D0004FF0000A04F11A0B04E00D9B5B425345F4
:1008E00040F3848001235A46314628469A44B8474B
:1008F0000130F2D1C9E60120DDE90823CDF810B0BE
:100900002160019100210691606000908FE72268CC
:10091000D0077FF512AE9CE70233A4E72268D30725
:100920007FF59AAEC8E79A460D9B089A9A423CDC3E
:100930002268D00739D4089AD31AA2EB0A0A9A453A
:10094000D146A8BF994629EAE97A53457FF783AE95
:100950004FF00008DDF820B004F11A0907E00D9B04
:10096000ABEB0303A3EB0A0343457FF774AE01230C
:100970004A46314628469844B8470130EFD184E6CC
:10098000099B204A002BBCBF2D2384F843302AF05A
:1009900004032360032323611B4B4FF00009BBF1C9
:1009A000470F94BF9046984642E63146DDE90A2358
:1009B0002846B84701303FF468AE089A0D9BA2EB79
:1009C0000A09D31A9945A8BF9946B9F1000F934671
:1009D000B9DD4B463146284608EB0A02B8470130DC
:1009E0003FF453AE5A460D9BD31AACE74B464246F2
:1009F00031462846B84701307FF42DAE45E600BFAA
:100A0000C07F0008B87F0008BC7F00082DE9F84FC0
:100A100092461F460A698B680C469A42B8BF1A462E
:100A2000CAF8002091F843300646DDF8289013B14B
:100A30000132CAF80020226891065FD5DAF800304A
:100A40000233CAF80030226812F0060F11461DD199
:100A5000E1689942D8BF114618DD4FF0000804F153
:100A6000190B05E0E568DAF80030ED1A45450CDDB4
:100A700001235A4639463046C847013008F101087B
:100A8000F0D14FF0FF30BDE8F88F216894F8433083
:100A9000003B18BF01238A060AD53021E21882F8EC
:100AA000431094F845105A1C2244023382F8431034
:100AB0003946304604F14302C8470130E1D0D4E959
:100AC00002202368DAF8005003F00603042B2169A2
:100AD0001BD08A4220DD4FF00008521A90440025B6
:100AE0001A3401E0454517DA0123224639463046DB
:100AF000C847013005F10105F4D1C2E712F0060F35
:100B00000DD0003B18BF0123D2E7401B8A4220EAE8
:100B1000E078E2DC0028E2DC0020BDE8F88FE16844
:100B2000DAF800309942D8BF114696DCAEE700BF34
:100B30002DE9F04717460A7E84B00C4606469846D3
:100B40000C9D01F1430C002A35D0A2F15803D9B213
:100B5000202969D8202B67D8DFE813F0E000660071
:100B60006600660066006600660066006600660055
:100B70006600940070006600660066006600700003
:100B8000660066006600660021008300AE00660015
:100B900066009E006600830066006600E6002B6823
:100BA0002268181D6169286010061B6802D452066D
:100BB00000F1DC8019600023E14623613B462146B9
:100BC0003046CDF8008003AAFFF720FF013020D087
:100BD0004A46394630462369C047013019D0236858
:100BE000E0689B07DDF80C9018D5484516DD002518
:100BF00004F1190A04E0E068A0EB0903AB420DDD43
:100C00000123524639463046C047013005F10105FF
:100C1000F1D14FF0FF3004B0BDE8F0874845B8BFD0
:100C2000484604B0BDE8F087012084F8422004F172
:100C300042090023206184F84330BFE72A68236813
:100C4000111D2960190602D45D0600F19380106819
:100C5000014600286268C0F291804FF00A0E5248A7
:100C60004AE02B682168181D2860080601D449064F
:100C70007ED419686F2A14BF4FF00A0E4FF0080E89
:100C8000494835E02A680120116804322A6004F1DD
:100C9000420984F84210CCE72B6800211A1D2A6013
:100CA000D3F800906268484600F05EFB002879D0D7
:100CB000A0EB09006060BCE7236843F020032360D9
:100CC00078223A4884F845202A68111D29601D06BB
:100CD0004AD4590648D51188DA0744BF43F02003A7
:100CE000236019B9236823F0200323604FF0100E0E
:100CF0000023626884F84330002AA26016DB236870
:100D000023F00403236089B9002A45D1E146BEF1EE
:100D1000080F1CD0ACEB090323614FE7582322488E
:100D200084F845302368CFE72368C9E77546E14674
:100D3000B1FBF5F30A4605FB131A194610F80A3001
:100D4000AA4209F8013DF3D2BEF1080FE2D12368AF
:100D5000DD07DFD5626823699A42DBDC302309F1C5
:100D6000FF3989F80030D5E71168B5E7198022E727
:100D700019887FE7B2F9001008466AE72D20002A9B
:100D8000A26084F8430002DB23F0040323600A25F9
:100D90000548AE464942CAE7037804F1420984F89F
:100DA0004230B4E7606844E7C47F0008D87F000899
:100DB000024A0349034800F069B900BF000000205F
:100DC000C9300008100000200C4B416810B5994252
:100DD000044601D002F078F9A168094B994202D08B
:100DE000204602F071F9E168064B994204D0204692
:100DF000BDE8104002F068B910BD00BFDC01002062
:100E000044020020AC02002008B54B6EDA0702D481
:100E10008B899B0501D5002008BD886D00F09AFAEA
:100E2000002008BD08B54B6EDA0702D48B899B05FC
:100E300001D5002008BD886D00F094FA002008BD9F
:100E40002DE9F84300250423304C3149DFF8C490E4
:100E5000DFF8C480314F324E0822C4F8381104F153
:100E60005C002946C4E90335C4E90055C4E90555C9
:100E7000A560656600F076F904F15800C4E90849F8
:100E8000C4E90A87266300F05DFA264B294608224A
:100E900004F1C4006367C4E91A55C4E91E55256707
:100EA000C4F8CC50C4F8805000F05CF904F1680339
:100EB00004F1C000C4F88830C4E92398C4E9257659
:100EC00000F040FA184B294604F596700822C4F841
:100ED000DC30C4E93455C4E93855C4F8D850C4F8F6
:100EE0003451C4F8E85000F03DF904F1D003C4E9EE
:100EF0003E87C4F8F49004F59470C4F80061C4F817
:100F0000F030BDE8F84300F01DBA00BFDC0100205E
:100F1000B10D0008D1100008F910000839110008BF
:100F20005D1100080900010012000200F8B5064634
:100F30002A4800F00FFA2A4BD3F83831002B43D05F
:100F4000284FD7E90134013B04D524E05A1C04F1B1
:100F5000680420D0B4F90C50013B002DF6D1224B8F
:100F600004F15800E360656600F0ECF91B4800F0FE
:100F7000F9F908222946C4E90155C4E90455256058
:100F8000A56104F15C0000F0EDF8C4E90D55C4E979
:100F900012552046F8BD3D680DB12F46D1E74FF4FC
:100FA000D6713046FFF708F9044680B10423056086
:100FB000294605460C304FF4D072A060636000F003
:100FC000D1F83C602F46BCE7FFF73AFFB8E703488B
:100FD0003C6000F0C7F90C233360DAE738030020E7
:100FE000DC010020000000200100FFFF10B50446D6
:100FF0000B4800F0AFF9236A2BB90A4B0A4AD3F821
:101000003831226223B1BDE81040054800F0AAB98A
:10101000FFF716FFBDE81040014800F0A3B900BF7C
:1010200038030020DC010020C90D0008014800F051
:1010300091B900BF38030020014800F093B900BF08
:101040003803002008B5054800F084F9BDE80840E1
:101050000020034A034900F019B800BF38030020FC
:1010600000000020090E000808B50020044A0549C8
:1010700000F00CF8BDE80840034800F073B900BF69
:1010800000000020250E0008380300202DE9F84359
:101090004FF0000980460F461646D6E90154013D3F
:1010A00010D4A389013D012B08D9B4F90E300133C6
:1010B00004D021464046B84749EA00096B1C04F1B8
:1010C0006804EED13668002EE7D14846BDE8F883C3
:1010D00010B50C46B1F90E1000F0C6F8002803DB7D
:1010E000636D0344636510BDA38923F48053A3811A
:1010F00010BD00BF002070472DE9F0410C46B1F94A
:101100000C101F46CB05054616460BD421F4805122
:10111000A1813B4632462846B4F90E10BDE8F041A5
:1011200000F0CAB8B4F90E100223002200F086F8CD
:10113000B4F90C10EAE700BF10B50C46B1F90E1077
:1011400000F07CF8B4F90C30421C0EBF23F480533D
:1011500043F480536065A38110BD00BFB1F90E1048
:1011600000F05AB870B5860747D0541E002A3ED00A
:101170000346CAB201E0013C39D303F8012B9D07B5
:10118000F9D1032C2CD9CDB205EB05250F2C1A462D
:1011900005EB054534D9A4F1100C2CF00F0603F132
:1011A000100EB6444FEA1C1C156055609560D56062
:1011B00010327245F8D10CF1010214F00C0F03EB60
:1011C000021204F00F0C13D0ACF1040323F003035C
:1011D0000433134442F8045B9A42FBD10CF003043D
:1011E0002CB1C9B21C4403F8011B9C42FBD170BD59
:1011F00064461346002CF4D1F9E703461446C0E7D1
:10120000A446E1E7F0307047004870474C010020E9
:10121000004870474C010020002238B5064D0446B6
:1012200008462A6004F0C2FD431C00D038BD2B687C
:10123000002BFBD0236038BD1803002038B50C46C6
:10124000114600228446074D20462A601A4664460D
:1012500004F0B6FD431C00D038BD2B68002BFBD03A
:10126000236038BD1803002038B50C461146002213
:101270008446074D20462A601A46644604F078FDED
:10128000431C00D038BD2B68002BFBD0236038BD39
:1012900018030020002238B5064D044608462A608F
:1012A00004F032FD431C00D038BD2B68002BFBD06E
:1012B000236038BD1803002038B50C4611460022C3
:1012C0008446074D20462A601A46644604F060FDB5
:1012D000431C00D038BD2B68002BFBD0236038BDE9
:1012E00018030020014B1868704700BF0C00002055
:1012F00070B50F4B0F4DAB42A3EB050607D0002492
:10130000B61055F8043B01349847A642F9D806F0C8
:1013100011FD094D094B5E1BAB424FEAA60606D0F4
:10132000002455F8043B01349847A642F9D870BD13
:10133000408200084082000840820008488200087D
:10134000704700BF704700BF704700BF704700BFC5
:10135000704700BF704700BF0120704701207047F1
:10136000704700BF704700BF5FFA81FC810744D01F
:101370000346511E22B909E09A0709D0013905D365
:101380001846027801336245F6D170470020704755
:10139000184603290CD80029F8D00346014401E07F
:1013A0008B42F3D0184613F8012B6245F8D1ECE7D5
:1013B00010B50CEB0C24024604EB044402E00439A3
:1013C000032918D9104652F8043B6340A3F1013EAB
:1013D0002EEA030313F0803FF1D051B103460144DC
:1013E00001E08B4205D0184613F8012B6245F8D175
:1013F00010BD002010BD1046EFE71146C9E700BF41
:1014000020F0030110F00300C0F1000051F8043B8C
:1014100000F1040C4FEACC0C6FF000021CBF22FA62
:101420000CF213434FF0010C4CEA0C2C4CEA0C4C20
:10143000A3EB0C0222EA030212EACC1204BF51F819
:10144000043B0430F4D0C2F1000102EA0102B2FA16
:1014500082F2C2F11F0200EBD200704700000000D0
:101460002DE9F04F03690C6985B0A342C0F2918069
:101470008146013C01F1140509F1140855F82430A6
:1014800058F824C001339C45BCFBF3F64FEA8400B6
:1014900005EB840708EB840243D34FF0000CAA4607
:1014A000CDE90105C646634665469346CDF80C80F6
:1014B0005AF8040BDEF800201FFA80FC06FB0C55DE
:1014C0004FEA10484FEA154C06FB08CCADB290B27B
:1014D000401B18441FFA8CF3C3EB204303EB124369
:1014E00080B240EA034057454EF8040B4FEA1C45D2
:1014F0004FEA2343DCD2DDE90105DDF80C8058F822
:10150000003073B9ABF10402904504D307E0904575
:1015100004F1FF3403D252F80439002BF7D0C9F894
:101520001040484601F0F6FA00282EDB4146002222
:1015300055F8040BD1F800C01FFA80FE1FFA8CF397
:10154000A3EB0E031344020CC2EB234202EB1C423A
:101550009BB243EA0243AF4241F8043B4FEA2242C6
:10156000E6D258F8242008EB84036AB9043B984576
:1015700004D307E0984504F1FF3403D253F804295B
:10158000002AF7D0C9F810400136304605B0BDE852
:10159000F08F002005B0BDE8F08F00BF2DE9F04FBF
:1015A00016461F46C5699DB0CDE90467299C029087
:1015B000002D00F0B283296851B101236A6893407D
:1015C0004A608B6000F0E0FF0022029BDB691A603A
:1015D000B7F10009B4BF012300232360784BBCBFDF
:1015E00029F00049CDF8149033EA090300F0AC80EB
:1015F000DDE904341846214600220023CDE9080124
:1016000003F03CF9804668B10123289A13602A9BB5
:1016100013B16C4B2A9A13606B4B039303981DB064
:10162000BDE8F08F1AAB01931BAB00930298DDE984
:10163000082301F0C1FB5FEA1955824640F09A8009
:10164000DDE91A85454405F23243202B40F39983A6
:10165000C3F1400309FA03F905F2124326FA03F332
:1016600049EA030002F028FE0123013D1093A1F195
:10167000F8710022554B02F0E1FC4BA3D3E90023A3
:1016800002F094FE4AA3D3E9002302F0D9FC0646F7
:1016900028460F4602F020FE47A3D3E9002302F0BC
:1016A00085FE02460B463046394602F0C9FC064626
:1016B0000F4603F02BF900228346002330463946BB
:1016C00003F0E6F8002840F03583A8EB0508BBF1ED
:1016D000160F08F1FF3400F21683DDE908013C4DD6
:1016E00005EBCB05D5E9002303F0D2F8002875D02F
:1016F0000023002C0BF1FF3B0F93C0F20983002362
:101700000A93BBF1000F6FDA0A9BA3EB0B03CDE941
:101710000A3BCBF100030E93269B4FF0000B092BE5
:101720006AD8052B40F332830025043B2693269B81
:10173000029A023BD669032B00F24B86DFE813F0D6
:101740007504720469044E0442F20F73289AC9F3B7
:10175000130959EA060913601CD12A9B002B00F0DB
:101760004F861C4B039308332A9A039813601DB0CD
:10177000BDE8F08FDDE90812C2F31303084643F019
:101780007F51CDF84080A5F2FF35DDF8688041F447
:1017900040116EE72A9B002B40F0FD830E4B039314
:1017A0003CE700BFAFF3008061436F63A787D23F80
:1017B000B3C8608B288AC63FFB799F501344D33F40
:1017C0000000F07FC17F0008C07F00080000F83FE4
:1017D000687D0008EC7F0008F87F0008B8F1000F72
:1017E00040F37B840F900A9000230E93269B5C4469
:1017F000092BCDF82CB094D9002326934FF0FF335A
:101800000693029B0125DE6900230C952793002196
:10181000069B71601193029800F076FE03900028F9
:1018200000F0DF85029B039ADB691A60069B0E2B92
:1018300000F21281002D00F00F810B9A002A40F374
:101840005384B14D02F00F0305EBC303D0054FEAFB
:101850002215D3E9006740F11084DDE90801AB4BA4
:101860004FF00309D3E9082302F0CAFECDE91201C3
:1018700005F00F058DB1DFF89482E90709D5D8E9A5
:1018800000233046394602F091FD06460F4609F125
:1018900001096D1008F10808EFD1DDE912013246A7
:1018A0003B4602F0ADFECDE912010F9B53B1DDE9DD
:1018B0001256002228463146954B02F0E9FF0028D7
:1018C00040F0FF84484602F007FDDDE9122302F0F4
:1018D0006DFD904B002202F0B3FB069B0646A1F182
:1018E0005077002B00F0A1800B9B1793069B16935B
:1018F000039BDDE9128949464046CDE914675E1C29
:1019000003F004F8804D1699074605EBC10353E92F
:101910000212CDE9121202F0DFFC02460B464046ED
:10192000494602F08BFBDDE9122389460C993037DA
:101930008046FFB2002900F063840020764902F05F
:101940005FFEDDE9142302F079FB02460B46039D9E
:10195000CDE912232F7042464B4602F0B7FF002814
:1019600040F0A884CDE918B4CDF850A00027DDE9F7
:1019700012AB169D2AE00137AF4280F2F684504642
:1019800059460022654B02F011FD0022634B82464E
:101990008B464046494602F009FD8946804602F0E2
:1019A000B5FF044602F098FC02460B464046494605
:1019B00002F044FB303452465B4606F8014B804649
:1019C000894602F065FF002840F0CC8442464B4631
:1019D00000204F4902F032FB52465B4602F058FFAE
:1019E0000028C8D0179B3746DDF850A0039A03F1B2
:1019F000010802E0BA4200F094843E4617F8013D27
:101A0000392BF7D00133DBB245463B706AE14846DB
:101A100002F062FCDDE9122302F0C8FC00223D4B1B
:101A200002F00EFB0646A1F150770022DDE912011B
:101A30003B4B02F003FB32463B468046894602F0B0
:101A400045FF002840F07C8440464946324607F175
:101A5000004302F01DFF28BB1B9B002BC0F29280AD
:101A60000B9A0E2A00F38E80274D0B9B05EBC305C6
:101A7000D5E90034CDE90434279B002B19DA069B05
:101A8000002B16DC0ED1DDE904010022244B02F00C
:101A90008DFC02460B46DDE9080102F003FF002839
:101AA00000F04E844FF000094F46039E279BDD4314
:101AB00037E2DDE90445DDE9088922462B46404648
:101AC000494602F09DFD02F021FF064602F004FCAB
:101AD00022462B4602F06AFC039F0B46024649460B
:101AE000404602F0ABFA06F1300307F8013B069BD3
:101AF000012B00F02B830125CDF818A09946DDE9D4
:101B000004ABA8462CE000BF687D0008587E0008A2
:101B10000000F03F00001C400000E03F00002440B7
:101B20000000144052465B462046294602F068FDFC
:101B300002F0ECFE064602F0CFFB52465B4602F096
:101B400035FC08F101080B4602462946204602F002
:101B500075FA06F13003C84507F8013B00F0F4823E
:101B600000228B4B02F022FC0022002304460D468B
:101B700002F084FE0028D5D00B9D3E46DDF818A06B
:101B80000135AFE00C9A002A40F0E88000231F46A0
:101B90000E9E0A9D0C9355B1002C08DDA5422B46E4
:101BA000A8BF23460A9AED1AD21A0A92E41A0E9B8B
:101BB00053B10C9B13B1002E40F0018351460E9A95
:101BC000029800F0C3FE82460121029800F0F6FD63
:101BD0008146BBF1000F40F0AD81269B012B40F305
:101BE000DF810120204410F01F0000F0B080C0F120
:101BF0002003042B40F3ED810A9BC0F11C00034439
:101C00000A93054404440A9B002B05DD51461A46FD
:101C1000029800F00BFF8246002C05DD4946224663
:101C2000029800F003FF81460F9B002B40F0988143
:101C3000069B002B40F35A810C9B002B40F0B78091
:101C40000B9D01350126DDF80C80069CDDF808B0FF
:101C500007E0514600230A22584600F0B9FC8246AC
:101C6000013649465046FFF7FBFBA64200F1300320
:101C700008F8013BEDDB069A0024002ACCBF16468B
:101C80000126039A02EB060B5146012202980493A7
:101C900000F0CCFE4946824600F03CFF002840F3AD
:101CA000FF81039A02E0934500F012821BF8013C89
:101CB0005E46392B0BF1FF3BF5D001338BF800303A
:101CC000DDF808804946404600F05EFC57B12CB173
:101CD000BC4203D02146404600F056FC39460298EB
:101CE00000F052FC5146029800F04EFC0023337085
:101CF000289B1D602A9B002B3FF490AC03981E602C
:101D00001DB0BDE8F08F0123002C0F93BFF6F7AC98
:101D1000C8F1010300240A93F3E41020FEF716FA39
:101D2000029BD861002800F06F83C0E900558560F0
:101D3000C5604DE4584602F0CFFA32463B4602F009
:101D40009DFD00287FF4C1AC0BF1FF3BBDE41C23DB
:101D50000A9A1D441A440A921C4454E7269A012AFE
:101D600040F3A981069A0E9B561EB342C0F26781CA
:101D7000002AA3EB060680F2E9820A9B069A9D1AC6
:101D800068E1C3F1200306FA03F06BE40125CEE419
:101D900000002440394600230A22029800F018FC73
:101DA000119B0746002B40F300830B960693002DF2
:101DB00000F33E81BBF1000F40F0E581B846039B84
:101DC000069C1E46013B1C44049B0A9403F001033D
:101DD000029C0C9349465046FFF742FB3946834626
:101DE000504600F097FE424649460546204600F020
:101DF000B1FEC26801460BF13003002A38D10690CB
:101E00005046089300F086FE024606992046069248
:101E100000F0BAFB069A089B002A57D1269A1AB9F5
:101E20000C9A002A00F0A782002D42DBB3460A9AE2
:101E30000BF8013BB24200F0BD81514600230A225B
:101E4000204600F0C5FB4745824639464FF0000367
:101E50004FF00A02204633D000F0BAFB4146074655
:101E600000230A22204600F0B3FB5E468046B1E71D
:101E70000298069300F088FB002D069B06DB049A6F
:101E8000269902F001020D432A432AD1514601222C
:101E90000298049300F0CAFD4946824600F03AFEDB
:101EA0000028049B40F3F180392B00F03F820BF1B6
:101EB00031030B9D3C460135474606F8013BFFE6E2
:101EC00000F086FB5E460746804683E7002DC0F2A1
:101ED0008F8226990D430C990D4300F08982002AC8
:101EE000A4DD392B00F022820133E2E7269B022B8E
:101EF0007FF7A2AE069B002B40F0248149460522C5
:101F0000029800F065FB81465046494600F002FE0B
:101F1000002840F3178131230B9D039E013506F8FD
:101F2000013B49460298013500F02EFB002F7FF45B
:101F3000D5AED7E601465A46029800F007FD269B2B
:101F40008146012B40F38C804FF0000BD9F8103004
:101F500009EB8303186900F0E1FBC0F1200041E6C2
:101F60004946504600F0D6FD0028BFF661AE514606
:101F700000230A22029800F02BFB0B9B82465E1E78
:101F80000C9B002B7FF406AF119B002B40F3F981D3
:101F90000B9D069356E6964B03930333FFF7E4BB82
:101FA000049B002B7FF41DAEDDE90412C2F3130382
:101FB000002B7FF416AE8F4B134023B10A9B0134E4
:101FC00001330A930123BBF1000F40F0BD819B4612
:101FD00007E63FF418AEC0F13C03B9E601230C93C9
:101FE000279B0B9A134411930133012B1F46B8BF53
:101FF00001270693172F40F3FF81012204235B0082
:1020000003F11400B842114602F10102F7D97160E0
:1020100001E401230C93279B002B3CDD1F46119309
:102020000693E7E700230C93DAE700230C93F2E72B
:1020300039462A46029800F0F9FC0746BAE60E9B9C
:102040000E96F31A0026069A9B440A9B14441D46DA
:1020500013440A930121029800F0B0FB07469AE569
:10206000049B002B7FF470AFDDE90401C1F313037F
:102070000A46002B7FF468AF9DE7DDE908234FF0A7
:102080000209CDE91223FFF7F5BB7FF412AFD807A1
:102090007FF50FAF08E7012327930693FFF7B7BB40
:1020A00003D1049BD9073FF5FCAD5E461BF8013D0B
:1020B000302BFAD004E6109A002A00F0FE8003F2DA
:1020C00033430A9A0E9E15461A441C440A92C1E7ED
:1020D0003123039A01351370F2E5C8F10103044678
:1020E0000A930F90FFF780BB00F01381DDE9080130
:1020F0000B9B414D5E4206F00F0305EBC303D3E992
:10210000002302F053F935110746884600F0548148
:1021100000234FF00209394EEA0706D5D6E900231D
:1021200002F044F9012309F101096D1006F10806D6
:10213000F2D1CDE91201002B7FF4B7ABCDE91278D3
:10214000FFF7B3BB039EB1E4DDF818A002460B46CF
:1021500001F076FF02460B460B9DCDE90623DDE933
:1021600004230135A84602F0B1FB40B9DDE90423A0
:10217000DDE9060102F082FB18B1F40701D5039AEC
:102180003BE43E46AEE50298796800F0BDF90546AD
:10219000002800F017813B6907F10C0102339A0017
:1021A0000C3000F0D1FF29460122029800F03EFCDD
:1021B000804604E60B9D3C460135474664E5DDF864
:1021C000089039463246484600F0C0FB0746524662
:1021D0003946484600F008FB80465146484600F024
:1021E000D3F90E9BC2469B1B0E933FF4EDACE5E486
:1021F000F87F00080000F07F687D0008587E000826
:10220000DDE9140102F0D2F8039BCDE90C011F7047
:10221000169B012B00F0C780169F039BCDF840B0A2
:102220001F440022824B4046494602F0BFF88946CF
:10223000804602F06BFB834602F04EF802460B46E6
:102240004046494601F0FAFE0BF1300B06F801BB9F
:10225000B74280468946E4D1DDF840B00022DDE98E
:102260000C01744B01F0ECFE02460B464046494619
:1022700002F02CFB00286FD1DDE90C2300206D4912
:1022800001F0DCFE02460B464046494602F000FBE8
:1022900048B91B9B002BFFF679AC0B9B0E2B3FF72D
:1022A00075ACFFF7E2BB17F8013C3E46302B07F157
:1022B000FF37F8D0179D013514E51A9BC3F136039B
:1022C000FFE6069B002B3FF4A2AB119B002B7FF790
:1022D000C3AB16930B9B2846013B31460022179354
:1022E000534B02F063F802460E46154609F1010011
:1022F000CDE9125601F0F0FF33462A4602F056F8B7
:1023000000224D4B01F09CFE0646A1F15077FFF7ED
:10231000EFBADDE908234FF00209CDE91223FFF7F8
:10232000C4BA312308F10108FFF76EBBB346392365
:102330000B9D3C46039A474601350BF8013BB5E43B
:102340004FF000094F46E6E59B46FFE50A9B144423
:102350001D4613440A937DE6179B039A03F1010877
:10236000FFF74BBBDDF850A0A4E7DDF850A0DDE996
:1023700018B4FFF771BB392BD8D0002D3FF797ADBC
:1023800097E5269B022B0ADC119B494606930B9D81
:10239000FFF766F8039A00F1300313706BE4119BAA
:1023A0000B960693A6E5374658E7269B022BF6DCEC
:1023B000119B0B960693FAE44FF00209CDE91278CF
:1023C000FFF773BA024640F2EF211C4B1C4800F0A5
:1023D00031FF002502982946756000F095F80390BA
:1023E000C0B9002240F2AF11144B154800F022FF93
:1023F000002A7FF75EAD49E500217160FFF70BBA57
:10240000104B0393FFF70AB90246EF210E4B0C481D
:1024100000F010FF029B0399DB694FF0FF32196057
:102420000123279511920C930692FFF715BB00BF6D
:10243000000024400000E03F00001C4050800008E5
:1024400014800008EC7F0008FC7F0008002950D0B1
:1024500038B551F8043C0C1F002BB8BFE4180546F2
:10246000FDF726FF274A13682BB1A3420CD9216838
:10247000601883422CD0284663601460BDE8384061
:10248000FDF71CBFA3420FD81A465B68002BF9D199
:1024900011685018844217D02CD3636054602846CA
:1024A000BDE83840FDF70ABF11685018A04214D0AB
:1024B00020D8216860188342EFD118685B6808440F
:1024C000C4E900035460EAE723680B441360E6E7BD
:1024D00018685B6808442060CDE720680144501804
:1024E00083421160DBD1D3E900040144C2E9001446
:1024F000D5E770470C2328462B60BDE83840FDF730
:10250000DDBE00BFD801002070B5C66905460C4687
:102510005EB1F368A3B153F82400E8B1026843F850
:1025200024200023C360036170BD1020FDF70EFE60
:102530000646E861E8B10023C0E900338360C36068
:10254000212204212846FDF7EDFDEB69F060DB68F0
:10255000002BE0D1002070BD0121284601FA04F5CE
:102560006A1D9200FDF7DEFD0028F3D0C0E90145A9
:10257000D7E702466B21024B024800F05BFE00BF2A
:10258000FC7F00086480000870B5C66905460C46EB
:102590004EB13CB1EB696268DB6853F822102160F0
:1025A00043F8224070BD1020FDF7D0FDE86120B156
:1025B000C0E900668660C660EBE702468F21024BE9
:1025C000024800F037FE00BFFC7F0008648000086E
:1025D0002DE9F0414FF0000E0E461C460D690746EE
:1025E00001F1140001680EF1010E8BB202FB0343EE
:1025F000090C4FEA134C02FB01CC9BB203EB0C43DA
:10260000754540F8043B4FEA1C44EBDC3CB1B36831
:10261000AB4207DD06EB850301355C613561304671
:10262000BDE8F081716838460131FFF76DFF8046E3
:1026300090B1326906F10C01023292000C3000F0C8
:1026400083FD314646463846FFF79EFF06EB85037D
:1026500001355C613561E2E70246BA21014B02486F
:1026600000F0E8FD50800008648000082DE9F84380
:102670001E460C4626490833174681FB032C092EBB
:102680004FEAE3730546C3EB6C0339DD4FF0010CF1
:1026900000214FEA4C0C634501F10101F9DC2846A9
:1026A000FFF732FF014668B3089B092F43614FF0E3
:1026B0000103036112DC09270A34BE420BDDF61B5D
:1026C000264414F8013B0A222846303BFFF780FFDE
:1026D000A6420146F5D10846BDE8F88304F1090990
:1026E000C8463C4418F8013B0A222846303BFFF715
:1026F0006FFFA0450146F5D1A7F108044C44DCE783
:102700000021CCE70246D321024B034800F092FDA2
:10271000398EE3385080000864800008B0F5803FAF
:1027200003463ABF102083400020B3F1807F3CBFB6
:102730001B020830B3F1805F3CBF1B010430B3F1D2
:10274000804F03D3002B06DB013070479B0003D47E
:102750005B0003D42020704702307047033070477D
:102760000368014613F0070209D0DA0721D498075D
:102770004BBF5B089B08012002200B60704798B29A
:10278000A0B11046DAB20AB908301B0A1A0704BF12
:102790001B0904309A0704BF9B080230DA0703D4F0
:1027A0005B0800F1010006D00B6070471020C340A9
:1027B000E8E7002070472020704700BF10B50C46A6
:1027C0000121FFF7A1FE024618B10123C0E904343C
:1027D00010BD40F24511024B024800F02BFD00BF36
:1027E00050800008648000082DE9F04FD1F8108077
:1027F00015690E46A845924685B005DB2A46534624
:1028000045468A4690461E46DAF80830DAF8041043
:1028100005EB0804A342B8BF0131FFF775FE00289D
:1028200000F0898000F1140707EB840E774505D28C
:102830003B46002243F8042B9E45FBD8143606EB9A
:1028400088080AF11409464509EB850566D2A5EB0F
:102850000A03153B23F003030AF1150A0433554517
:102860002CBF9B464FF0040BCDF808E08246AE46E5
:10287000039405E0090C2AD1B04507F104074AD9B1
:1028800056F8041B8DB2002DF4D0CC463C460023F4
:1028900001965CF8040B216886B28AB205FB062219
:1028A000000C090C05FB00111A4401EB124192B215
:1028B00042EA0142E64544F8042B4FEA1143E8D8C6
:1028C000019E47F80B3056F8041C090CD4D00022A6
:1028D0003B6848461D463C46944602889BB201FB35
:1028E00002C202EB154243EA024344F8043B50F8AB
:1028F000043B25684FEA134CABB201FB0C33864511
:1029000003EB12434FEA134CE7D8B04547F80B30BE
:1029100007F10407B4D8DDE902E45046002C02DCDC
:1029200005E0013C03D05EF8043D002BF9D00461C2
:1029300005B0BDE8F08F02464FF4B171014B02487B
:1029400000F078FC50800008648000082DE9F04118
:1029500012F003031446074682B02DD10E46A41090
:102960001CD0FA698AB39568002D39D0E3074FF07F
:10297000000806D4641011D0286898B10546E30712
:10298000F8D531462A463846FFF72EFF0346314632
:1029900038461E46FFF7F8FD6410EDD1304602B010
:1029A000BDE8F0812A4629463846FFF71DFF28601A
:1029B0000546C0F80080E2E7184A013B52F82320A0
:1029C0000023FFF705FE0646C9E71020FDF7BEFB12
:1029D0000246F861E0B10023C0E900338360C360C0
:1029E000012138460192FFF78FFD019A054640B15B
:1029F000012340F27121C0E904310023906003609B
:102A0000B4E7024640F24511054B064800F012FCBF
:102A100040F2B311044B034800F00CFC587D000851
:102A20005080000864800008FC7F00082DE9F04712
:102A30000D462F69AB6807EB62177C1C9C429146E0
:102A4000064649684FEA621A04DD5B009C4201F1C8
:102A50000101FADC3046FFF757FD804600284ED0D2
:102A6000BAF1000F00F114000EDD034600210AF157
:102A700005024FEA820C08EB820243F8041B9342E2
:102A8000FBD1ACF114031844296905F1140319F0C2
:102A90001F0903EB81012AD084464FF0000AC9F1D7
:102AA000200E1A6802FA09F242EA0A024CF8042BD4
:102AB00053F8042B994222FA0EFAF2D84B1B153B1D
:102AC00023F00303043305F11502914238BF0423B8
:102AD00040F803A0BAF1000F00D13C463046294629
:102AE000C8F81040FFF750FD4046BDE8F0870438B5
:102AF00053F8042B994240F8042FF9D8EDE7024629
:102B00004FF4EF71014B024800F094FB5080000835
:102B10006480000884460B690069C01A15D10CF165
:102B2000140C14310CEB830210B401EB830301E0AD
:102B3000944508D252F8044D53F8041D8C42F7D046
:102B400004D24FF0FF3010BC70477047012010BC1A
:102B5000704700BF2DE9F04F13690D690C46ED1A5F
:102B6000002D904683B015D101F11407143202EB09
:102B7000830207EB830301E09F4276D253F8046D92
:102B800052F8041D8E42F7D006D223460125444652
:102B9000984601E0F9DB00256168FFF7B5FC0028E5
:102BA00075D000F114094F464FF0000C2669D8F893
:102BB000103004F1140B08F1140EC56004F110017B
:102BC0000EEB830A0BEB8602CDF804B05EF8044BE3
:102BD00051F8045F1FFA84FBABB2A3EB0B03240C88
:102BE0006344C4EB154404EB23449BB243EA04431F
:102BF000F24547F8043B4FEA244CE7D8AAEB080516
:102C0000153DAD08691C08F115088900C24538BF9B
:102C10000421DDF804B00BEB0104A24249442FD992
:102C20000F462546E04655F8043B1FFA83FCC44492
:102C30004FEA134E43440EEB2C4E9BB243EA0E4335
:102C4000AA424FEA2E4C47F8043BEBD8013A121B3C
:102C500022F00302114423B951F8043D013E002B38
:102C6000FAD0066103B0BDE8F08F0021FFF74CFCFD
:102C7000A0B101220023C0E9042303B0BDE8F08F16
:102C8000AD00C24538BF002509EB0501E3E7024668
:102C900040F24521054B064800F0CCFA024640F2CE
:102CA0003721024B024800F0C5FA00BF50800008EF
:102CB00064800008124B0A460B40A3F15073002BAE
:102CC00003DD00221946104670475B42B3F1A07F36
:102CD0004FEA235106DA4FF4002300220B41194634
:102CE0001046704714391E29D4BF4FF0004201220C
:102CF0004FF00003D8BFCA4010461946704700BFC6
:102D00000000F07FF8B5046900F1140202EB8404BE
:102D100054F8045C261F2846FFF700FD0346C0F167
:102D200020000A2B086030DDB242A3F10B071AD253
:102D300054F8083C1FB3C7F1200C23FA0CF1BD4036
:102D400045EA0106A4F1080546F07F51AA4203FABC
:102D500007F341F4401116D254F80C2C22FA0CF26D
:102D600013431846F8BD0B2B08D0002305FA07F7CC
:102D700047F07F51184641F44011F8BD002345F05B
:102D80007F5141F440111846F8BDB2422CBF0022D9
:102D900054F8082CC3F10B0703F1150325FA07FCBF
:102DA00038BFFA4005FA03F34CF07F51134318463D
:102DB00041F44011F8BD00BFF0B5012183B01646C3
:102DC0001F46FFF7A1FB0546002847D0C7F30A546A
:102DD000C7F313030CB143F48013002E019314D1F5
:102DE00001A8FFF7BDFC0122019B20306B612A6125
:102DF00014B3089BA4F2334404441C60099BC0F143
:102E000035001860284603B0F0BD68460096FFF70D
:102E1000A7FC019B00B30099C0F1200203FA02F263
:102E2000C34001930A43002B6A610CBF01220222B6
:102E3000AB612A61002CDCD105EB8201A0F23243A8
:102E4000086908990B60FFF769FC099BC0EB421009
:102E50001860284603B0F0BD009AE4E7024640F24D
:102E60000F31024B024800F0E5F900BF5080000826
:102E7000648000082DE9F04383B00E46694607469A
:102E8000FFF740FF04460D46304601A9FFF73AFF21
:102E900033693A69D21ADDE900369B1B03EB421312
:102EA000002B0BDD05EB03594D4602460B46204631
:102EB000294601F0A5FB03B0BDE8F083C3EB033363
:102EC00001EB03573946F0E7172870B506460ADDCF
:102ED000002000240749084D22462B4601F066FADF
:102EE000013EF9D170BD054B03EBC003D3E90401EA
:102EF00070BD00BF0000F03F00002440587D000876
:102F000001F1FF3C116902F114034FEA6C1C03EB61
:102F100081010CF1010C8B4200EB8C0C16D210B528
:102F2000A0F1040E53F8044B99424EF8044FF9D81F
:102F30008B1A153B23F0030304331844844504D94A
:102F4000002340F8043B8445FBD810BD844505D9D7
:102F5000002340F8043B8445FBD87047704700BF0E
:102F600003694A11934200F1140009DA00EB83036C
:102F700002E053F8042DA2B98342FAD8002070472A
:102F800000EB8203F8DD11F01F01F5D010B450F80A
:102F9000224024FA01F28A40944208D0012010BC59
:102FA00070470120704753F8042D002AF6D1834260
:102FB000F9D8002010BC7047F8B5B1F90C300746BD
:102FC00018070C4639D44A68002A53DDE56A002DFB
:102FD00031D000223E683A6013F48052216A55D104
:102FE00001233846A847411C02465ED0B4F90C3094
:102FF000E56A216A5B0705D56368D21A636B0BB17A
:10300000236CD21A00233846A847451C40D0002222
:10301000236962602360A389D90400D56065616B70
:103020003E6041B104F14403994202D03846FFF7B3
:103030000DFA002363630020F8BD0E69002EFAD05C
:103040009B0718BF00230D6808BF4B690E60AD1BBE
:103050008B600CE02B463246D4F828C03846216AF3
:10306000E047B0F1000CA5EB0C05664406DD002D31
:10307000F0DCE0E70A6C002AA8DCDCE7B4F90C30ED
:1030800043F040034FF0FF30A381F8BD626DB1E71C
:103090003A68B4F90C308AB11D2A01D0162AEFD152
:1030A00000232269C4E90023B9E73B68002B9DD0C7
:1030B0001D2B01D0162BE1D13E60BCE76260226976
:1030C0002260DA04AAD4AAE738B50B69CBB10C4662
:1030D000054608B1036ABBB1B4F90C308BB1626E1E
:1030E000D00701D4990512D528462146FFF764FF81
:1030F000636E0546DA0702D4A3899B050BD52846E3
:1031000038BD0025284638BDFDF770FFE4E7A06D07
:10311000FEF720F9E8E7A06DFEF724F9EFE700BF1E
:10312000014618B1044B1868FFF7CEBF034A0449A3
:103130000448FDF7ABBF00BF0C00002000000020DA
:10314000C930000810000020844641EA000313F053
:10315000030349D1403A23D30B6803604B684360B3
:103160008B688360CB68C3600B6903614B69436103
:103170008B698361CB69C3610B6A03624B6A4362EB
:103180008B6A8362CB6AC3620B6B03634B6B4363D3
:103190008B6B8363CB6BC36340304031403ADBD2EF
:1031A00030320BD30B6803604B6843608B688360DD
:1031B000CB68C36010301031103AF3D20C3205D313
:1031C00051F8043B40F8043B043AF9D2043208D0E9
:1031D000D2071CBF11F8013B00F8013B01D30B885B
:1031E00003806046704700BF082A13D38B07B1D015
:1031F00010F00303AED0C3F10403D21ADB071CBFE7
:1032000011F8013B00F8013BA4D331F8023B20F850
:10321000023B9FE7043AD9D3013A11F8013B00F889
:10322000013BF9D20B7803704B7843708B78837035
:1032300060467047144600B51A460A4B0D461B6897
:1032400085B0DE6803464CB1074901913046074915
:103250000294009500F05AF800F06CF804490C460E
:10326000F3E700BF0C000020B0800008C080000819
:10327000BC80000808B513460022FFF7DBFF00BF43
:1032800010B4034CD4F8E440A44610BC604700BF1F
:103290005C00002082B049B15AB16BB113780B6069
:1032A0001278101E18BF012002B0704701A9002A31
:1032B000F3D1104602B070476FF00100F4E700BF91
:1032C00010B4034CD4F8E040A44610BC604700BFE3
:1032D0005C000020034649B1FF2A02D801200A7091
:1032E00070478A224FF0FF301A60704708467047D7
:1032F0000CB400B583B004AB53F8042B019300F079
:103300005DF803B05DF804EB02B070470EB400B591
:10331000074A82B003AB0146106853F8042B0193AF
:1033200000F04CF802B05DF804EB03B0704700BF4A
:103330000C000020062008B500F0E0FC012002F09F
:1033400011FD00BF9368013B002B936005DAD2F8B2
:1033500018C0634507DB0A2905D01368581C1060A4
:1033600008461970704700F007BB00BF9BB1F8B565
:10337000134406460F46541E5D1E01E0AC4208D0C1
:103380003A46304614F8011FFFF7DCFF431CF5D125
:10339000F8BD0020F8BD0020704700BF936810B54D
:1033A00014461BB918460023636010BD00F06EF987
:1033B0000023A3600023636010BD00BF2DE9F04F20
:1033C000A1B08B4691461C46049018B1036A002BAD
:1033D00000F04181DBF86420BBF90C30D20702D445
:1033E0009F0540F131811E0740F19A80DBF81030D3
:1033F000002B00F09580002343F220020D9399F8F2
:1034000000300127954E0794ADF83920002B77D076
:103410004D4604E015F8013F002B00F09780252B66
:10342000F8D1B5EB090A40F094802B78002B67D0D7
:1034300000234FF0FF320135CDE9092308930B93A8
:103440008DF863301E9306E02546089B801B07FA23
:1034500000F0034308932C46052214F8011B304664
:10346000FDF782FFA1460028EED1089BD80644BF95
:1034700020228DF86320190748BF2B22297848BFE6
:103480008DF863202A297AD1079A1168043200291D
:103490000792C0F2AD800B9169782E2900F08680EA
:1034A0006F4C03222046FDF75FFF38B14022089B96
:1034B000001B8240134309F10109089319F8011B0D
:1034C000062268488DF83810FDF74EFF002800F0FE
:1034D0009580654B002B7ED007A900915A46049831
:1034E000624B08A9FCF7B0FF0390039B013307D0A0
:1034F0000D9B039A13440D9399F80030002B87D14C
:10350000DBF8643013F0010FBBF80C3002D19A05E0
:1035100040F193805B0616D40D9821B0BDE8F08F82
:103520005946049800F076FA00283FF464AFDBF8BF
:103530006430DD0707D4BBF80C309C0503D4DBF8FE
:103540005800FDF70FFF4FF0FF30E6E7B5EB090A33
:10355000D6D009F1FF3805954546DDF8108001E029
:10356000A2453FD92C465A46404615F8011FFFF7A1
:10357000E9FE02340130A4EB0904F1D1C0E7A1F166
:103580003002092A88BFA94687D80B9B00E0013486
:10359000217803EB830302EB4303A1F13002092AF4
:1035A000F5D92E29A1460B937FF47AAF99F8011033
:1035B0002A292DD1079B09F102001A680433002A39
:1035C0000793B8BF4FF0FF3399F802100992814674
:1035D000B8BF099364E7079B073323F00703083359
:1035E000079385E70D99059D51442B780D911DE7B3
:1035F000494243F002030B9108934DE707A900915C
:103600005A460498194B08A9FDF792FA03906CE703
:103610000023A1F13002092A09F1010909933FF6BB
:103620003FAF19F8011F03EB830302EB4303A1F142
:103630003002092AF5D9099332E7DBF85800FDF783
:1036400091FEBBF80C3065E7DBF85800FDF782FE11
:10365000BBF90C30C7E6FDF7C9FCBBE6F0800008FB
:10366000F8800008FC800008490400086D33000859
:103670008C4600B586461346034A714610685DF8CD
:1036800004EB6246FFF79ABE0C0000209368002B03
:1036900000F0F0802DE9F04FB1F90CC090461CF01D
:1036A000080F81460C4683B02BD00B694BB31CF03E
:1036B0000207D8F8006032D04FF0000A5546D4F81F
:1036C00028B0216AAB4FC5B1BD422B46524628BF38
:1036D0003B464846D847002840F3C280D8F8083017
:1036E00082441B1A2D1AC8F80830002B00F0AE8057
:1036F000D4F828B0216A002DE6D1D6E900A5083615
:10370000E1E72146484600F085F9002840F0AD8009
:10371000B4F90CC0D8F800601CF00207CCD11CF042
:10372000010A63D157462368A16818468B46002FCB
:1037300058D01CF4007F00F0B180B9420A4600F274
:10374000DD801CF4906F2FD0216962695D1A02EB55
:10375000420202EBD2726B1C52103B44934292BF66
:1037600093469B461A461CF4806F00F0E680114693
:103770004846FCF721FD002800F0F5802A46216923
:103780000190FFF7E1FCA289019B22F4906242F0D4
:103790008002A2815819C4F814B0ABEB05053A4673
:1037A000BB462361A56020603D460027514601923B
:1037B00000F090F9A1682368019AA1EB0B011A446B
:1037C000A1602260D8F80830AA445B1BC8F8083012
:1037D000002B3BD02368A16818468B46B4F90CC077
:1037E000002FA6D1D6E900A708369EE73846BB468B
:1037F0003D46002D40D0002845D03A46D4E904C3C8
:103800002068AA4228BF2A466045A16804D901EB76
:10381000030A524500F38280934272DC5A464846BE
:10382000216AD4F828C0E047B0F1000A18DDB7EBF0
:103830000A070FD00120D8F80830D344A3EB0A03BD
:10384000A5EB0A05C8F80830002BD2D1002003B040
:10385000BDE8F08F21464846FFF736FC0028EAD045
:10386000B4F90C3043F04003A3814FF0FF3003B0B4
:10387000BDE8F08F00207047756833460836002D8C
:10388000FAD0D3F800B02A460A215846FDF76CFD5D
:10389000002865D00130A0EB0B07AEE722699A4201
:1038A00014D36569BD4211D86FF00043BB4228BFF5
:1038B0003B4693FBF5F3524605FB03F34846A56AE6
:1038C000216AA847051ECBDD7F1B7BE7B94228BFD5
:1038D00039460D46184651462A4600F0FBF8A168C5
:1038E0002368491B2B44A16023600029ECD12146A9
:1038F0004846FFF7E9FB0028E6D0B1E7BB463A4669
:1039000052E759469246019200F0E4F8A368019A02
:103910009B1AA36023681344236088E759465246E4
:1039200000F0D8F823682146534448462360FFF747
:10393000CBFB00283FF47BAF92E7484600F090FABB
:10394000034600287FF426AF48462169FEF77EFD36
:103950000C22B4F90C30C9F8002023F0800381E771
:103960006A1C17464AE70C22B4F90C30C9F800204B
:1039700078E700BF00FCFF7FF8B506460D46144609
:1039800010B1036A002B37D0A269A389A2601A077D
:1039900019D52369BBB122686169D31AEDB2994286
:1039A0002F4620DD0133A1680139A160511C21603F
:1039B000157062699A420DD0A389DB0701D50A2DE3
:1039C00008D03846F8BD2146304600F023F838B913
:1039D0002369E0E721463046FFF776FB0028F0D068
:1039E0004FF0FF37EDE721463046FFF76DFB00282B
:1039F000F6D101232268D6E7FDF7F8FAC4E700BF45
:103A000003460A46024908681946FFF7B5BF00BFDA
:103A10000C00002038B52E4B05461B680C4613B130
:103A20001A6A002A4BD0B4F90C3018071CD5226949
:103A300022B313F0010107D000206169A060494260
:103A4000A1613AB1002038BD980758BF6169A160F3
:103A5000002AF7D1190658BF1046F4D543F04003A9
:103A60004FF0FF30A38138BDD9062CD55A0712D4A8
:103A7000226943F00803A381002ADAD103F42071FC
:103A8000B1F5007FD5D02146284600F01DFAB4F9E3
:103A90000C302269CDE7616B51B104F144029142CF
:103AA00004D02846FEF7D2FCB4F90C300022626341
:103AB0000021226923F02403C4E90021D9E7184634
:103AC000FDF794FAAFE7092243F040032A60C7E705
:103AD0000C00002088420ED98B1883420BD900EBD2
:103AE000020C002A6DD0624613F801CD994202F80B
:103AF00001CDF9D170470F2A0FD8034602F1FF3CE0
:103B0000002A5ED00CF1010C013B8C4411F8012B12
:103B1000614503F8012FF9D1704740EA01039B0783
:103B200050D1A2F1100370B501F1200C23F00F0564
:103B300001F1100E00F11004AC441B095EF8105C9A
:103B40000EF1100E44F8105C5EF81C5C103444F862
:103B50001C5C5EF8185C44F8185C5EF8145CE64582
:103B600044F8145CEAD1013312F00C0F01EB03119D
:103B700002F00F0400EB031328D08E46043C24F01F
:103B800003064FEA940C1E441C1F5EF8045B44F8C5
:103B9000045FB442F9D10CF1010402F0030203EB1B
:103BA000840301EB840102F1FF3C4AB10CF1010CEA
:103BB000013B8C4411F8012B614503F8012FF9D129
:103BC00070BD7047034602F1FF3C9BE72246EAE7DF
:103BD00038B5C46B0CB1002038BD80210546FCF718
:103BE000EBFA0246E86330B1031F7C3243F8044F1E
:103BF0009342FBD1EFE74FF0FF3038BD30B51F29BE
:103C0000054683B008D8C36B0C4653B153F8240063
:103C100043F8242003B030BD162303604FF0FF307B
:103C2000F8E780210192FCF7C7FA019A0346E8639E
:103C30000028F3D0011F00F17C05002041F8040F9B
:103C4000A942FBD1E2E700BF1F2938B505461ED8BF
:103C5000C26B0C466AB152F8213053B1012B06D029
:103C6000591C10D00021204642F82410984700200B
:103C700038BD284600F0F2F8224601462846BDE845
:103C8000384000F0D7B8162301202B6038BD16232A
:103C90004FF0FF302B6038BD1F292BD838B5C36BD0
:103CA0000C460546A3B153F8242003EB84034AB124
:103CB000511C0BD0012A07D0002520461D609047DB
:103CC000284638BD012038BD032038BD022038BD4C
:103CD0008021FCF771FA0346E86340B100201A1F07
:103CE00003F17C0142F8040F9142FBD1DBE74FF076
:103CF000FF3038BD4FF0FF30704700BF38B5134B71
:103D00001F281D681DD8EA6B044662B152F82030A6
:103D10004BB1012B05D0591C0FD0002142F82010C7
:103D20009847002038BD284600F098F82246014602
:103D30002846BDE8384000F07DB8162301202B60EE
:103D400038BD16234FF0FF302B6038BD0C0000202B
:103D5000114B1F2870B51E6808D8F36B04460D463A
:103D60004BB153F8240043F8245070BD1623336040
:103D70004FF0FF3070BD80213046FCF71DFA03463E
:103D8000F0630028F4D00021021F7C3042F8041FA9
:103D90009042FBD1E5E700BF0C00002038B50B4B8B
:103DA0001D68EC6B0CB1002038BD80212846FCF763
:103DB00003FAE86338B1031F00F17C0243F8044FB3
:103DC0009342FBD1EFE74FF0FF3038BD0C000020ED
:103DD00038B5174B1F281D6826D80446E86BA0B1DC
:103DE00050F8242000EB84034AB1511C0BD0012A67
:103DF00007D0002520461D609047284638BD012089
:103E000038BD032038BD022038BD80212846FCF78C
:103E1000D3F9E86340B10021031F00F17C0243F8AD
:103E2000041F9A42FBD1DBE74FF0FF3038BD00BFE3
:103E30000C00002070B50026074D044608461146C8
:103E40002E6001F087FF431C00D070BD2B68002B53
:103E5000FBD0236070BD00BF1803002001F078BFC5
:103E60002DE9F041144649B3EAB106460D4600F08B
:103E7000D9F88442074602D8B4EB500F1AD821462D
:103E80003046FCF799F9804678B1BC422246294673
:103E900028BF3A46FFF758F930462946FEF7D6FACA
:103EA0004046BDE8F081FEF7D1FA4FF000084046E9
:103EB000BDE8F081A8464046BDE8F0811146BDE866
:103EC000F041FCF779B900BF70B5B1F90C300C4680
:103ED000990796B007D5012204F14703C4E90432DB
:103EE000236016B070BDB4F90E100546002929DB19
:103EF0006A4600F071F8002822DB4FF48061284602
:103F0000019EFCF759F988B3A38906F4704643F083
:103F10008003A3814FF48063B6F5005FC4E9040316
:103F20002060DED12846B4F90E1000F069F80028B0
:103F3000D7D0A38923F0030343F00103A381D0E783
:103F4000B4F90C3013F0800F14BF40264FF4806694
:103F500028463146FCF730F940B1A389C4E904068C
:103F600043F080032060A38116B070BDB4F90C301B
:103F70009A05B6D4012123F0030304F1470243F06C
:103F80000203C4E90421A3812260AAE770B50C46AC
:103F9000B1F90E10154600291E4696B00FDB6A4691
:103FA00000F01AF800280ADB019B4FF4806203F44A
:103FB0007043A3F50053B3FA83F35B0907E0A289CA
:103FC000002312F0800F14BF40224FF480620020C3
:103FD00033602A6016B070BD70B50026074D0446E8
:103FE000084611462E6001F0E4FE431C00D070BD6F
:103FF0002B68002BFBD0236070BD00BF180300208E
:10400000002238B5064D044608462A6001F0D6FE67
:10401000431C00D038BD2B68002BFBD0236038BD7B
:104020001803002051F8043C181F002BBCBF0B588C
:10403000C018704781F0004102E000BF83F00043E8
:1040400030B54FEA41044FEA430594EA050F08BF33
:1040500090EA020F1FBF54EA000C55EA020C7FEAF7
:10406000645C7FEA655C00F0E2804FEA5454D4EB74
:104070005555B8BF6D420CDD2C4480EA020281EA3E
:10408000030382EA000083EA010180EA020281EA76
:104090000303362D88BF30BD11F0004F4FEA0131C8
:1040A0004FF4801C4CEA113102D0404261EB4101D7
:1040B00013F0004F4FEA03334CEA133302D052425D
:1040C00063EB430394EA050F00F0A780A4F1010419
:1040D000D5F1200E0DDB02FA0EFC22FA05F2801853
:1040E00041F1000103FA0EF2801843FA05F3594139
:1040F0000EE0A5F120050EF1200E012A03FA0EFCB8
:1041000028BF4CF0020C43FA05F3C01851EBE371E1
:1041100001F0004507D54FF0000EDCF1000C7EEBFE
:1041200000006EEB0101B1F5801F1BD3B1F5001F3C
:104130000CD349085FEA30004FEA3C0C04F101045B
:104140004FEA445212F5800F80F09A80BCF1004F84
:1041500008BF5FEA500C50F1000041EB045141EA06
:10416000050130BD5FEA4C0C404141EB0101013CCF
:1041700028BFB1F5801FE9D291F0000F04BF0146BE
:104180000020B1FA81F308BF2033A3F10B03B3F190
:1041900020020CDA0C3208DD02F1140CC2F10C0220
:1041A00001FA0CF021FA02F10CE002F11402D8BF7E
:1041B000C2F1200C01FA02F120FA0CFCDCBF41EA4A
:1041C0000C019040E41AA2BF01EB0451294330BD19
:1041D0006FEA04041F3C1CDA0C340EDC04F11404F6
:1041E000C4F1200220FA04F001FA02F340EA0300CD
:1041F00021FA04F345EA030130BDC4F10C04C4F113
:10420000200220FA02F001FA04F340EA03002946F2
:1042100030BD21FA04F0294630BD94F0000F83F43C
:10422000801306BF81F480110134013D4EE77FEA1F
:10423000645C18BF7FEA655C29D094EA050F08BF6B
:1042400090EA020F05D054EA000C04BF194610464C
:1042500030BD91EA030F1EBF0021002030BD5FEA90
:10426000545C05D14000494128BF41F0004130BDB8
:1042700014F580043CBF01F5801130BD01F000450C
:1042800045F0FE4141F470014FF0000030BD7FEA7F
:10429000645C1ABF194610467FEA655C1CBF0B467A
:1042A000024650EA013406BF52EA033591EA030F91
:1042B00041F4002130BD00BF90F0000F04BF002189
:1042C000704730B54FF4806404F132044FF00005BC
:1042D0004FF0000150E700BF90F0000F04BF002135
:1042E000704730B54FF4806404F1320410F000459B
:1042F00048BF40424FF000013EE700BF42004FEA96
:10430000E2014FEA31014FEA02701FBF12F07F4312
:1043100093F07F4F81F06051704732F07F4208BFC9
:10432000704793F07F4F04BF41F40021704730B5D0
:104330004FF4607401F0004521F000411CE700BF1C
:1043400050EA010208BF704730B54FF000050AE09F
:1043500050EA010208BF704730B511F0004502D5A0
:10436000404261EB41014FF4806404F132045FEAA2
:10437000915C3FF4D8AE4FF003025FEADC0C18BF4B
:1043800003325FEADC0C18BF033202EBDC02C2F13D
:10439000200300FA03FC20FA02F001FA03FE40EACF
:1043A0000E0021FA02F11444BDE600BF70B54FF0D3
:1043B000FF0C4CF4E06C1CEA11541DBF1CEA1355B1
:1043C00094EA0C0F95EA0C0F00F0DEF82C4481EA19
:1043D000030621EA4C5123EA4C5350EA013518BF39
:1043E00052EA033541F4801143F4801338D0A0FB26
:1043F00002CE4FF00005E1FB02E506F00042E0FBD3
:1044000003E54FF00006E1FB03569CF0000F18BFD8
:104410004EF0010EA4F1FF04B6F5007F64F5407480
:1044200004D25FEA4E0E6D4146EB060642EAC62113
:1044300041EA55514FEAC52040EA5E504FEACE2E80
:10444000B4F1FD0C88BFBCF5E06F1ED8BEF1004F83
:1044500008BF5FEA500E50F1000041EB045170BDFF
:1044600006F0004646EA010140EA020081EA030143
:10447000B4EB5C04C2BFD4EB0C0541EA045170BD3F
:1044800041F480114FF0000E013C00F3AB8014F1B9
:10449000360FDEBF002001F0004170BDC4F1000402
:1044A000203C35DA0C341BDC04F11404C4F1200583
:1044B00000FA05F320FA04F001FA05F240EA0200DE
:1044C00001F0004221F0004110EBD37021FA04F614
:1044D00042EB06015EEA430E08BF20EAD37070BDCE
:1044E000C4F10C04C4F1200500FA04F320FA05F02D
:1044F00001FA04F240EA020001F0004110EBD3702F
:1045000041F100015EEA430E08BF20EAD37070BD9E
:10451000C4F1200500FA05F24EEA020E20FA04F377
:1045200001FA05F243EA020321FA04F001F0004126
:1045300021FA04F220EA020000EBD3705EEA430E97
:1045400008BF20EAD37070BD94F0000F0FD101F0C6
:104550000046400041EB010111F4801F08BF013CFF
:10456000F7D041EA060195F0000F18BF704703F03D
:104570000046520043EB030313F4801F08BF013DC4
:10458000F7D043EA0603704794EA0C0F0CEA135580
:1045900018BF95EA0C0F0CD050EA410618BF52EA3A
:1045A0004306D1D181EA030101F000414FF0000040
:1045B00070BD50EA410606BF1046194652EA43064E
:1045C00019D094EA0C0F02D150EA013613D195EAC2
:1045D0000C0F05D152EA03361CBF104619460AD10A
:1045E00081EA030101F0004141F0FE4141F4700114
:1045F0004FF0000070BD41F0FE4141F4780170BD04
:1046000070B54FF0FF0C4CF4E06C1CEA11541DBF68
:104610001CEA135594EA0C0F95EA0C0F00F0A7F86A
:10462000A4EB050481EA030E52EA03354FEA013197
:1046300000F088804FEA03334FF0805545EA1313AA
:1046400043EA12634FEA022245EA111545EA106572
:104650004FEA00260EF000419D4208BF964244F109
:10466000FD0404F5407402D25B084FEA3202B61A28
:1046700065EB03055B084FEA32024FF480104FF4FC
:10468000002CB6EB020E75EB030E22BFB61A754670
:1046900040EA0C005B084FEA3202B6EB020E75EB03
:1046A000030E22BFB61A754640EA5C005B084FEA6B
:1046B0003202B6EB020E75EB030E22BFB61A754638
:1046C00040EA9C005B084FEA3202B6EB020E75EB43
:1046D000030E22BFB61A754640EADC0055EA060E04
:1046E00018D04FEA051545EA16754FEA06164FEA47
:1046F000C30343EA52734FEAC2025FEA1C1CC0D1F3
:1047000011F4801F0BD141EA00014FF000004FF07F
:10471000004CB6E711F4801F04BF01430020B4F140
:10472000FD0C88BFBCF5E06F3FF6AFAEB5EB030CF8
:1047300004BFB6EB020C5FEA500C50F1000041EBF5
:10474000045170BD0EF0004E4EEA113114EB5C04C2
:10475000C2BFD4EB0C0541EA045170BD41F4801195
:104760004FF0000E013C90E645EA060E8DE60CEA9D
:10477000135594EA0C0F08BF95EA0C0F3FF43BAFBA
:1047800094EA0C0F0AD150EA01347FF434AF95EA71
:104790000C0F7FF425AF104619462CE795EA0C0F55
:1047A00006D152EA03353FF4FDAE1046194622E722
:1047B00050EA410618BF52EA43067FF4C5AE50EAFC
:1047C00041047FF40DAF52EA43057FF4EBAE12E7EC
:1047D0004FF0FF3C06E000BF4FF0010C02E000BFCD
:1047E0004FF0010C4DF804CD4FEA410C7FEA6C5CB0
:1047F0004FEA430C18BF7FEA6C5C1BD001B050EA53
:10480000410C0CBF52EA430C91EA030F02BF90EA3D
:10481000020F0020704710F1000F91EA030F58BFFC
:10482000994208BF90422CBFD8176FEAE37040F05E
:10483000010070474FEA410C7FEA6C5C02D150EAFC
:10484000013C07D14FEA430C7FEA6C5CD6D152EAB7
:10485000033CD3D05DF8040B704700BF844610467C
:1048600062468C461946634600E000BF01B5FFF77B
:10487000B7FF002848BF10F1000F01BD4DF808ED4B
:10488000FFF7F4FF0CBF012000205DF808FB00BF1C
:104890004DF808EDFFF7EAFF34BF012000205DF876
:1048A00008FB00BF4DF808EDFFF7E0FF94BF0120C3
:1048B00000205DF808FB00BF4DF808EDFFF7CEFFC4
:1048C00094BF012000205DF808FB00BF4DF808ED03
:1048D000FFF7C4FF34BF012000205DF808FB00BFD4
:1048E0004FEA410C7FEA6C5C02D150EA013C0AD1EC
:1048F0004FEA430C7FEA6C5C02D152EA033C02D1DE
:104900004FF0000070474FF0010070474FEA41023E
:1049100012F5001215D211D56FF47873B3EB625211
:1049200012D94FEAC12343F0004343EA505311F038
:10493000004F23FA02F018BF404270474FF00000CA
:10494000704750EA013005D111F0004008BF6FF008
:10495000004070474FF00000704700BF00F1340185
:1049600091E838009C46A6464CF8045D90E8FF0F9D
:10497000E54600BD90EC210B704700BF80EC210B99
:10498000704700BF90EC200B704700BF80EC200BFD
:10499000704700BFD0EC200B704700BFC0EC200B6D
:1049A000704700BFF0EC0201F0EC0211F0EC0221C4
:1049B000F0EC0231F0EC0241F0EC0251F0EC02615B
:1049C000F0EC0271F0EC0281F0EC0291F0EC02A14B
:1049D000F0EC02B1F0EC02C1F0EC02D1F0EC02E13B
:1049E000F0EC02F1704700BFE0EC0201E0EC0211D4
:1049F000E0EC0221E0EC0231E0EC0241E0EC02519B
:104A0000E0EC0261E0EC0271E0EC0281E0EC02918A
:104A1000E0EC02A1E0EC02B1E0EC02C1E0EC02D17A
:104A2000E0EC02E1E0EC02F1704700BFB0FC018174
:104A3000B0FC0191B0FC01A1B0FC01B1704700BF16
:104A4000A0FC0181A0FC0191A0FC01A1A0FC01B18E
:104A5000704700BFEC4600B52DE900502DE9FF1F5F
:104A60004FF000032DE90C0001A902F0F6FCDDF87F
:104A700040E012B0704700BFEC4600B52DE9005091
:104A80002DE9FF1F4FF000032DE90C0001A902F0F2
:104A90001BFDDDF840E012B0704700BFEC4600B5EA
:104AA0002DE900502DE9FF1F4FF000032DE90C0008
:104AB00001A902F029FDDDF840E012B0704700BF07
:104AC000EC4600B52DE900502DE9FF1F4FF0000323
:104AD0002DE90C0001AB02F0EDFCDDF840E012B076
:104AE000704700BFEC4600B52DE900502DE9FF1FCF
:104AF0004FF000032DE90C0001AA02F057FDDDF88C
:104B000040E012B0704700BF10B5054C237833B9B0
:104B1000044B13B10448AFF300800123237010BD90
:104B20003903002000000000347D000808B5034B65
:104B30001BB103490348AFF3008008BD000000002B
:104B40003C030020347D000830B589B00024049473
:104B5000059406940794184B9A6942F010029A61E2
:104B60009A6902F010020192019A9A6942F02002B9
:104B70009A619A6902F020020292029A9A6942F0BE
:104B800004029A619B6903F004030393039B0B4D9A
:104B900022464FF40051284600F0B8FE4FF400536F
:104BA00004930123059306940223079304A928463E
:104BB00000F09EFD09B030BD001002400010014021
:104BC00000B583B00A4B5A6942F001025A615B6931
:104BD00003F001030193019B002201210C2001F04D
:104BE0005FF80C2001F06CF803B05DF804FB00BF27
:104BF0000010024072B6FEE710B596B00024129481
:104C00001394149415941094119409940A940B9489
:104C10000C940D940E940F942022214601A8FCF7C9
:104C2000A1FA2C482C4B0360446084605923C36074
:104C30000461FF234361846101F0F2FC00283DD14F
:104C40004FF48053129312A9224801F0E9FD002885
:104C500036D1204801F010FD002833D100231093F5
:104C6000119310A91B4802F015F800282CD16023DD
:104C7000099300220A920B920C920D920E920F92BF
:104C800009A9144801F052FD00BB1248026893695B
:104C900023F0080393610023019302930393049389
:104CA00005934FF400520692089301A902F028F8E8
:104CB00070B9084800F008F916B010BDFFF79AFF68
:104CC000FFF798FFFFF796FFFFF794FFFFF792FFBC
:104CD000FFF790FF28040020002C014008B50A4887
:104CE0000A4B03604FF4E133436000238360C360E9
:104CF00003610C2242618361C36101F01EF900B9B6
:104D000008BDFFF777FF00BF9C030020003801407B
:104D100008B50A480A4B03604FF4E13343600023AF
:104D20008360C36003610C2242618361C36101F04F
:104D300004F900B908BDFFF75DFF00BF5403002070
:104D40000044004000B591B02822002106A8FCF7DD
:104D500009FA00230193029303930493059301221C
:104D600006924FF4803307930A9202220D920E931B
:104D70004FF4E0130F9306A800F0ACF980B90F23AD
:104D8000019302210291002303934FF48062049265
:104D9000059301A800F0D0FB20B911B05DF804FB29
:104DA000FFF728FFFFF726FF08B500F045F9FFF7EA
:104DB000C9FFFFF7C9FEFFF703FFFFF71DFFFFF76E
:104DC0008DFFFFF7A5FF01F0EBFF02F009F8FCE70C
:104DD000FEE7FEE7FEE7FEE7FEE770477047704735
:104DE00008B500F03BF908BD08B5024800F070FEB8
:104DF00008BD00BFE403002008B5024801F0EFFA47
:104E000008BD00BF2804002082B00E4B9A6942F012
:104E100001029A619A6902F001020092009ADA692D
:104E200042F08052DA61DB6903F080530193019B09
:104E3000054A536823F0E06343F00073536002B007
:104E4000704700BF001002400000014002681B4B89
:104E50009A4200D0704710B582B0044603F564430F
:104E60009A6942F400629A619B6903F400630193BA
:104E7000019B1348134B036010234360002383609E
:104E80008022C2604FF4807202614FF480624261FE
:104E90008361C36100F060FD60B9094B63625C62CD
:104EA00000221146192000F0FBFE192000F008FF37
:104EB00002B010BDFFF79EFEEFE700BF002C0140DF
:104EC000E40300201C00024000B587B000230293D9
:104ED00003930493059302680D4B9A4202D007B0E6
:104EE0005DF804FB03F564439A6942F004029A6199
:104EF0009B6903F004030193019B4FF480730293B9
:104F000002230393059302A9024800F0F1FBE6E7B0
:104F1000002C01400008014010B588B00023049324
:104F200005930693079303682C4A934204D02C4AB6
:104F300093422BD008B010BD2A4B9A6942F48042AC
:104F40009A619A6902F480420092009A9A6942F04A
:104F500004029A619B6903F004030193019B4FF4DF
:104F60000073049302230593032307931E4C04A9A3
:104F7000204600F0BDFB4FF48063049300230593AB
:104F8000069304A9204600F0B3FBD3E7154BDA697A
:104F900042F40032DA61DA6902F400320292029AD3
:104FA0009A6942F004029A619B6903F00403039337
:104FB000039B0423049302230593032307930A4CC2
:104FC00004A9204600F094FB0823049300230593D2
:104FD000069304A9204600F08BFBABE700380140A4
:104FE00000440040001002400008014010B5044693
:104FF0000E4B1A784FF47A73B3FBF2F30C4A106835
:10500000B0FBF3F000F06AFE68B90F2C01D9012063
:105010000AE0002221464FF0FF3000F041FE054B30
:105020001C60002000E0012010BD00BFC80100206E
:10503000D0010020CC01002008B5074A136843F0D6
:1050400010031360032000F019FE0F20FFF7CEFFBE
:10505000FFF7DAFE002008BD00200240034A116875
:10506000034B1B780B441360704700BF7004002093
:10507000C8010020014B1868704700BF7004002071
:1050800038B50446FFF7F6FF0546B4F1FF3F02D0FE
:10509000044B1B781C44FFF7EDFF401BA042FAD3E2
:1050A00038BD00BFC801002082B0084B1B68084A09
:1050B000A2FB03235B0A00FB03F3019300BF019BE8
:1050C0005A1E0192002BF9D102B07047D001002086
:1050D000D34D6210002800F0F18170B582B0044613
:1050E000036813F0010F2CD0994B5B6803F00C039D
:1050F000042B1DD0964B5B6803F00C03082B12D0D9
:105100006368B3F5803F41D0002B55D103F1804354
:1051100003F504331A6822F480321A601A6822F404
:1051200080221A6037E08A4B5B6813F4803FE7D037
:10513000874B1B6813F4003F03D06368002B00F01B
:10514000BF81236813F0020F75D0814B5B6813F0A9
:105150000C0F5FD07E4B5B6803F00C03082B54D020
:105160002369002B00F08A807A4B01221A60FFF736
:1051700081FF0546764B1B6813F0020F75D1FFF7D0
:1051800079FF401B0228F5D903209EE1704A13687D
:1051900043F480331360636843B3FFF76BFF054646
:1051A0006B4B1B6813F4003FCBD1FFF763FF401B31
:1051B0006428F5D9032088E1B3F5A02F09D0644B0A
:1051C0001A6822F480321A601A6822F480221A6067
:1051D000E1E703F18043A3F53C331A6842F48022EF
:1051E0001A601A6842F480321A60D4E7FFF742FF6F
:1051F0000546574B1B6813F4003FA2D0FFF73AFF58
:10520000401B6428F5D903205FE1514B5B6813F420
:10521000803FA5D14E4B1B6813F0020F03D02369CA
:10522000012B40F04F814A4A136823F0F80361696B
:1052300043EAC1031360236813F0080F33D0A36956
:10524000002B5CD0434B0122C3F88024FFF712FFF0
:1052500005463F4B5B6A13F0020F21D1FFF70AFFAF
:10526000401B0228F5D903202FE1394A136823F0A7
:10527000F803616943EAC1031360DCE7354B0022A0
:105280001A60FFF7F7FE0546314B1B6813F0020F5B
:10529000D1D0FFF7EFFE401B0228F5D9032014E11F
:1052A0000120FFF701FF236813F0040F00F0968040
:1052B000274BDB6913F0805F34D1254BDA6942F06C
:1052C0008052DA61DB6903F080530193019B012571
:1052D000214B1B6813F4807F26D0E368012B3DD05F
:1052E000002B53D103F1804303F504331A6A22F0F3
:1052F00001021A621A6A22F004021A6233E0154BA4
:105300000022C3F88024FFF7B5FE0546104B5B6A08
:1053100013F0020FC7D0FFF7ADFE401B0228F5D9EE
:105320000320D2E00025D3E70B4A136843F48073CF
:105330001360FFF79FFE0646074B1B6813F4807F40
:10534000CBD1FFF797FE801B6428F5D90320BCE082
:105350000010024000004242007000405F4A136AA1
:1053600043F001031362E36833B3FFF783FE06469D
:105370005A4B1B6A13F0020F2FD1FFF77BFE801BE5
:1053800041F288339842F3D903209EE0052B09D0DF
:10539000524B1A6A22F001021A621A6A22F00402BF
:1053A0001A62E0E74D4B1A6A42F004021A621A6A66
:1053B00042F001021A62D6E7FFF75CFE0646474B51
:1053C0001B6A13F0020F08D0FFF754FE801B41F256
:1053D00088339842F3D9032077E0E5B9E369002BDD
:1053E00072D03E4A526802F00C02082A56D0022BB4
:1053F00017D03B4B00221A66FFF73CFE0446374BA2
:105400001B6813F0007F47D0FFF734FE001B022813
:10541000F5D9032059E0314AD36923F08053D36191
:10542000DCE72F4B00221A66FFF724FE05462B4BC4
:105430001B6813F0007F06D0FFF71CFE401B0228FC
:10544000F5D9032041E0236AB3F5803F1AD0234900
:105450004B6823F47413226A606A024313434B605F
:105460001F4B01221A66FFF705FE04461B4B1B6803
:1054700013F0007F0ED1FFF7FDFD001B0228F5D9C8
:10548000032022E0154A536823F40033A1680B433C
:105490005360DCE7002018E0002016E0012B16D056
:1054A0000E4B5B6803F48031226A914211D103F400
:1054B0007013626A93420ED1002006E0012070470B
:1054C000012002E0012000E0002002B070BD0120B8
:1054D000FBE70120F9E70120F7E700BF00100240D9
:1054E000000042420F4B5B6803F00C02082A01D017
:1054F0000D487047C3F383420C49885C13F4803F26
:105500000BD0084B5B68C3F34043094AD35C064A9F
:1055100002FB00F0B0FBF3F07047064B03FB00F01A
:10552000704700BF0010024000127A00887F000818
:10553000847F000800093D00002800F0A08070B5BD
:105540000D460446524B1B6803F007038B420BD2F7
:105550004F4A136823F007030B431360136803F0EB
:1055600007038B4240F08D80236813F0020F17D0A1
:1055700013F0040F04D0474A536843F4E0635360C8
:10558000236813F0080F04D0424A536843F4605371
:105590005360404A536823F0F003A1680B43536003
:1055A000236813F0010F31D06368012B20D0022B48
:1055B00025D0384A126812F0020F64D035494A6883
:1055C00022F0030213434B60FFF754FD0646314BB4
:1055D0005B6803F00C036268B3EB820F16D0FFF731
:1055E00049FD801B41F288339842F0D9032045E001
:1055F000284A126812F4003FE0D101203EE0254A1B
:10560000126812F0007FD9D1012037E0204B1B68CF
:1056100003F00703AB420AD91D4A136823F00703BE
:105620002B431360136803F00703AB422DD12368AB
:1056300013F0040F06D0174A536823F4E063E168BF
:105640000B435360236813F0080F07D0114A5368C7
:1056500023F46053216943EAC1035360FFF742FF1B
:105660000C4B5B68C3F303130B4AD35CD8400B4B62
:1056700018600B4B1868FFF7B9FC002070BD0120C3
:1056800070470120FAE70120F8E70120F6E700BFA4
:105690000020024000100240A07F0008D00100203E
:1056A000CC010020014B1868704700BFD0010020DA
:1056B00008B5FFF7F7FF044B5B68C3F30223034A07
:1056C000D35CD84008BD00BF00100240987F00089E
:1056D00008B5FFF7E7FF044B5B68C3F3C223034A37
:1056E000D35CD84008BD00BF00100240987F00087E
:1056F00070B582B00024A446A1E07E4DAB4214D028
:105700000CD8A5F58015AB420FD005F57025AB423E
:105710000BD0A5F58015AB4210D106E0764DAB421B
:1057200003D005F58035AB4208D18B68002B50D0F3
:10573000012B49D04261082400E0CC68BEF1FF0F84
:1057400049D806464FEA8C0233680F25954023EA74
:10575000050304FA02F2134333604B6813F0805FD1
:105760006BD0664B9A6942F001029A619B6903F023
:1057700001030193019B4FEA9C02951C604B53F877
:1057800025600CF00305AD000F23AB4026EA0306AD
:105790005C4B984226D003F58063984200F08C80E1
:1057A00003F58063984200F0898003F58063984296
:1057B00016D0042317E0CC680434BFE7CC68083463
:1057C000BCE7CC680C34B9E702610824B6E70024D2
:1057D000B4E70424B2E7061DACF108029200B3E777
:1057E000032300E00023AB4033430232444D45F82D
:1057F00022304B6813F4801F62D0434A936843EA17
:105800000E0393604B6813F4001F5FD03E4AD368C9
:1058100043EA0E03D3604B6813F4003F5CD03A4A6E
:10582000536843EA0E0353604B6813F4803F59D02A
:10583000354A136843EA0E0313600CF1010C0B6840
:1058400033FA0CF254D0012202FA0CF203EA020EEF
:1058500032EA0303F1D14B68122B3FF64EAF122B05
:105860003FF66CAF01A555F823F000BF2B57000899
:105870003B570008BD570008CF5700083D570008A8
:105880003D5700083D5700083D5700083D570008A8
:105890003D5700083D5700083D5700083D57000898
:1058A0003D5700083D5700083D5700083D57000888
:1058B000B7570008C3570008012394E7022392E773
:1058C000114A936823EA0E0393609BE70E4AD3685C
:1058D00023EA0E03D3609EE70B4A536823EA0E03C4
:1058E0005360A1E7084A136823EA0E031360A4E794
:1058F00002B070BD00002210000031100010024004
:105900000000014000080140000401400AB10161AB
:105910007047090401617047C36801EA030221EA84
:10592000030141EA02410161704730B40124056C72
:10593000AC40C56B6C60046863604368102B05D095
:10594000036899600368DA6030BC704703689A6046
:105950000368D960F8E7000050B310B4024601684C
:10596000144B0B441448A0FB03031B099B00136456
:10597000124BD363022382F8213008686FF30D10B5
:10598000536894682343D4682343146923435469B8
:10599000234394692343D469234303430B600020CA
:1059A0009063012382F8213082F8200010BC7047F8
:1059B00001207047F8FFFDBFCDCCCCCC00000240E9
:1059C00038B5044690F82000012832D0012084F830
:1059D000200094F82100C0B2012804D0002384F8EC
:1059E0002030022038BD022084F821000020A0636E
:1059F0002568286820F0010028602046FFF795FF01
:105A0000E36A5BB12268136843F00E0313602268F7
:105A1000136843F0010313600020E3E72268136872
:105A200023F0040313602268136843F00A03136031
:105A3000EDE70220D6E7000008B590F82130DBB290
:105A4000022B03D004238363012008BD026813687E
:105A500023F00E0313600268136823F00103136040
:105A60000368194A934214D0143293421FD014325F
:105A700093421ED0143293421ED0143293421ED051
:105A80001432934202D04FF0807203E04FF4801240
:105A900000E001220D4B5A60012380F821300023E1
:105AA00080F82030436B6BB198470020CDE710227F
:105AB000F0E74FF48072EDE74FF48052EAE74FF4DD
:105AC0008032E7E70020C0E7080002400000024003
:105AD00038B5C36B1A6804682568016C04238B40D1
